{
  "_format": "hh-sol-artifact-1",
  "contractName": "Task",
  "sourceName": "contracts/Task.sol",
  "abi": [
    {
      "inputs": [
        {
          "internalType": "address",
          "name": "_employer",
          "type": "address"
        },
        {
          "internalType": "address payable",
          "name": "_employee",
          "type": "address"
        },
        {
          "internalType": "uint256",
          "name": "_salary",
          "type": "uint256"
        }
      ],
      "stateMutability": "nonpayable",
      "type": "constructor"
    },
    {
      "stateMutability": "payable",
      "type": "fallback"
    },
    {
      "inputs": [],
      "name": "employee",
      "outputs": [
        {
          "internalType": "address payable",
          "name": "",
          "type": "address"
        }
      ],
      "stateMutability": "view",
      "type": "function"
    },
    {
      "inputs": [],
      "name": "employer",
      "outputs": [
        {
          "internalType": "address",
          "name": "",
          "type": "address"
        }
      ],
      "stateMutability": "view",
      "type": "function"
    },
    {
      "inputs": [],
      "name": "markTaskCompleted",
      "outputs": [],
      "stateMutability": "nonpayable",
      "type": "function"
    },
    {
      "inputs": [],
      "name": "paySalary",
      "outputs": [],
      "stateMutability": "nonpayable",
      "type": "function"
    },
    {
      "inputs": [],
      "name": "salary",
      "outputs": [
        {
          "internalType": "uint256",
          "name": "",
          "type": "uint256"
        }
      ],
      "stateMutability": "view",
      "type": "function"
    },
    {
      "inputs": [],
      "name": "taskCompleted",
      "outputs": [
        {
          "internalType": "bool",
          "name": "",
          "type": "bool"
        }
      ],
      "stateMutability": "view",
      "type": "function"
    },
    {
      "stateMutability": "payable",
      "type": "receive"
    }
  ],
  "bytecode": "0x60806040526000600360006101000a81548160ff02191690831515021790555034801561002b57600080fd5b506040516107ed3803806107ed833981810160405281019061004d91906101b4565b826000806101000a81548173ffffffffffffffffffffffffffffffffffffffff021916908373ffffffffffffffffffffffffffffffffffffffff16021790555081600160006101000a81548173ffffffffffffffffffffffffffffffffffffffff021916908373ffffffffffffffffffffffffffffffffffffffff16021790555080600281905550505050610207565b600080fd5b600073ffffffffffffffffffffffffffffffffffffffff82169050919050565b600061010d826100e2565b9050919050565b61011d81610102565b811461012857600080fd5b50565b60008151905061013a81610114565b92915050565b600061014b826100e2565b9050919050565b61015b81610140565b811461016657600080fd5b50565b60008151905061017881610152565b92915050565b6000819050919050565b6101918161017e565b811461019c57600080fd5b50565b6000815190506101ae81610188565b92915050565b6000806000606084860312156101cd576101cc6100dd565b5b60006101db8682870161012b565b93505060206101ec86828701610169565b92505060406101fd8682870161019f565b9150509250925092565b6105d7806102166000396000f3fe6080604052600436106100585760003560e01c80625fe948146100615780630397b65214610078578063a0a1a7d7146100a3578063a5708f94146100ce578063ae200e79146100e5578063f7317f00146101105761005f565b3661005f57005b005b34801561006d57600080fd5b5061007661013b565b005b34801561008457600080fd5b5061008d6101e6565b60405161009a9190610363565b60405180910390f35b3480156100af57600080fd5b506100b86101ec565b6040516100c591906103bf565b60405180910390f35b3480156100da57600080fd5b506100e3610212565b005b3480156100f157600080fd5b506100fa610313565b60405161010791906103fb565b60405180910390f35b34801561011c57600080fd5b50610125610337565b6040516101329190610431565b60405180910390f35b60008054906101000a900473ffffffffffffffffffffffffffffffffffffffff1673ffffffffffffffffffffffffffffffffffffffff163373ffffffffffffffffffffffffffffffffffffffff16146101c9576040517f08c379a00000000000000000000000000000000000000000000000000000000081526004016101c0906104a9565b60405180910390fd5b6001600360006101000a81548160ff021916908315150217905550565b60025481565b600160009054906101000a900473ffffffffffffffffffffffffffffffffffffffff1681565b600360009054906101000a900460ff16610261576040517f08c379a000000000000000000000000000000000000000000000000000000000815260040161025890610515565b60405180910390fd5b6002544710156102a6576040517f08c379a000000000000000000000000000000000000000000000000000000000815260040161029d90610581565b60405180910390fd5b600160009054906101000a900473ffffffffffffffffffffffffffffffffffffffff1673ffffffffffffffffffffffffffffffffffffffff166108fc6002549081150290604051600060405180830381858888f19350505050158015610310573d6000803e3d6000fd5b50565b60008054906101000a900473ffffffffffffffffffffffffffffffffffffffff1681565b600360009054906101000a900460ff1681565b6000819050919050565b61035d8161034a565b82525050565b60006020820190506103786000830184610354565b92915050565b600073ffffffffffffffffffffffffffffffffffffffff82169050919050565b60006103a98261037e565b9050919050565b6103b98161039e565b82525050565b60006020820190506103d460008301846103b0565b92915050565b60006103e58261037e565b9050919050565b6103f5816103da565b82525050565b600060208201905061041060008301846103ec565b92915050565b60008115159050919050565b61042b81610416565b82525050565b60006020820190506104466000830184610422565b92915050565b600082825260208201905092915050565b7f43616c6c6572206973206e6f742074686520656d706c6f796572000000000000600082015250565b6000610493601a8361044c565b915061049e8261045d565b602082019050919050565b600060208201905081810360008301526104c281610486565b9050919050565b7f5461736b206973206e6f7420636f6d706c657465642079657400000000000000600082015250565b60006104ff60198361044c565b915061050a826104c9565b602082019050919050565b6000602082019050818103600083015261052e816104f2565b9050919050565b7f496e73756666696369656e742062616c616e636520696e20636f6e7472616374600082015250565b600061056b60208361044c565b915061057682610535565b602082019050919050565b6000602082019050818103600083015261059a8161055e565b905091905056fea26469706673582212201e46df88c7ffd9f104534b3db9b4e6eda7ceb4e20de7856423e022eab8fd5d2464736f6c63430008180033",
  "linkReferences": {},
  "deployedLinkReferences": {}
}